01REMESSA01COBRANCA       00000000000004123376INOVA-EAD CONSULTORIA EAD LTDA237BRADESCO                     MX0000001                                                                                                                                                                                                                                                                                     000001
10000000000000000000000900436045841800000021699               0002020000000000000000000000002               01000002169905012000000000186040000000001N020519000000000000000070000000000000000000000000000000000000000000000100000028527720Bettina Bruno Santo Anastacio           Rua Raul Pompéia ,Apt 503 ,14                       22080002Ref. curso de pós-graduação EaD UCAM                        000002
10000000000000000000000900436045841800000021700               0002020000000000000000000000002               01000002170005022000000000186040000000001N020519000000000000000070000000000000000000000000000000000000000000000100000028527720Bettina Bruno Santo Anastacio           Rua Raul Pompéia ,Apt 503 ,14                       22080002Ref. curso de pós-graduação EaD UCAM                        000003
10000000000000000000000900436045841800000021694               0002020000000000000000000000002               01000002169405081900000000186040000000001N020519000000000000000070000000000000000000000000000000000000000000000100000028527720Bettina Bruno Santo Anastacio           Rua Raul Pompéia ,Apt 503 ,14                       22080002Ref. curso de pós-graduação EaD UCAM                        000004
10000000000000000000000900436045841800000014501               0002020000000000000000000000002               01000001450105051900000000118350000000001N020519000000000000000040000000000000000000000000000000000000000000000100001026058740ROSIMERI RAFAEL DA COSTA                Rua Boy ,LOTE ,29                                   28616170Ref. curso de pós-graduação EaD UCAM                        000005
10000000000000000000000900436045841800000014502               0002020000000000000000000000002               01000001450205061900000000118350000000001N020519000000000000000040000000000000000000000000000000000000000000000100001026058740ROSIMERI RAFAEL DA COSTA                Rua Boy ,LOTE ,29                                   28616170Ref. curso de pós-graduação EaD UCAM                        000006
10000000000000000000000900436045841800000014503               0002020000000000000000000000002               01000001450305071900000000118350000000001N020519000000000000000040000000000000000000000000000000000000000000000100001026058740ROSIMERI RAFAEL DA COSTA                Rua Boy ,LOTE ,29                                   28616170Ref. curso de pós-graduação EaD UCAM                        000007
10000000000000000000000900436045841800000014504               0002020000000000000000000000002               01000001450405081900000000118350000000001N020519000000000000000040000000000000000000000000000000000000000000000100001026058740ROSIMERI RAFAEL DA COSTA                Rua Boy ,LOTE ,29                                   28616170Ref. curso de pós-graduação EaD UCAM                        000008
10000000000000000000000900436045841800000023288               0002020000000000000000000000002               01000002328820012000000000142000000000001N020519000000000000000070000000000000000000000000000000000000000000000100010614642701ALESSANDRA MARTINS BORBA DA ROCHA       Rua José Raunheitti ,Casa3 ,394                     26285080Ref. curso de pós-graduação EaD UCAM                        000009
10000000000000000000000900436045841800000023289               0002020000000000000000000000002               01000002328920022000000000142000000000001N020519000000000000000070000000000000000000000000000000000000000000000100010614642701ALESSANDRA MARTINS BORBA DA ROCHA       Rua José Raunheitti ,Casa3 ,394                     26285080Ref. curso de pós-graduação EaD UCAM                        000010
10000000000000000000000900436045841800000023290               0002020000000000000000000000002               01000002329020032000000000142000000000001N020519000000000000000070000000000000000000000000000000000000000000000100010614642701ALESSANDRA MARTINS BORBA DA ROCHA       Rua José Raunheitti ,Casa3 ,394                     26285080Ref. curso de pós-graduação EaD UCAM                        000011
10000000000000000000000900436045841800000023291               0002020000000000000000000000002               01000002329120042000000000142090000000001N020519000000000000000070000000000000000000000000000000000000000000000100010614642701ALESSANDRA MARTINS BORBA DA ROCHA       Rua José Raunheitti ,Casa3 ,394                     26285080Ref. curso de pós-graduação EaD UCAM                        000012
10000000000000000000000900436045841800000023280               0002020000000000000000000000002               01000002328020051900000000141900000000001N020519000000000000000070000000000000000000000000000000000000000000000100010614642701ALESSANDRA MARTINS BORBA DA ROCHA       Rua José Raunheitti ,Casa3 ,394                     26285080Ref. curso de pós-graduação EaD UCAM                        000013
10000000000000000000000900436045841800000023281               0002020000000000000000000000002               01000002328120061900000000142000000000001N020519000000000000000070000000000000000000000000000000000000000000000100010614642701ALESSANDRA MARTINS BORBA DA ROCHA       Rua José Raunheitti ,Casa3 ,394                     26285080Ref. curso de pós-graduação EaD UCAM                        000014
10000000000000000000000900436045841800000023282               0002020000000000000000000000002               01000002328220071900000000142000000000001N020519000000000000000070000000000000000000000000000000000000000000000100010614642701ALESSANDRA MARTINS BORBA DA ROCHA       Rua José Raunheitti ,Casa3 ,394                     26285080Ref. curso de pós-graduação EaD UCAM                        000015
10000000000000000000000900436045841800000014505               0002020000000000000000000000002               01000001450505091900000000118350000000001N020519000000000000000040000000000000000000000000000000000000000000000100001026058740ROSIMERI RAFAEL DA COSTA                Rua Boy ,LOTE ,29                                   28616170Ref. curso de pós-graduação EaD UCAM                        000016
10000000000000000000000900436045841800000023283               0002020000000000000000000000002               01000002328320081900000000142000000000001N020519000000000000000070000000000000000000000000000000000000000000000100010614642701ALESSANDRA MARTINS BORBA DA ROCHA       Rua José Raunheitti ,Casa3 ,394                     26285080Ref. curso de pós-graduação EaD UCAM                        000017
10000000000000000000000900436045841800000023284               0002020000000000000000000000002               01000002328420091900000000142000000000001N020519000000000000000070000000000000000000000000000000000000000000000100010614642701ALESSANDRA MARTINS BORBA DA ROCHA       Rua José Raunheitti ,Casa3 ,394                     26285080Ref. curso de pós-graduação EaD UCAM                        000018
10000000000000000000000900436045841800000023285               0002020000000000000000000000002               01000002328520101900000000142000000000001N020519000000000000000070000000000000000000000000000000000000000000000100010614642701ALESSANDRA MARTINS BORBA DA ROCHA       Rua José Raunheitti ,Casa3 ,394                     26285080Ref. curso de pós-graduação EaD UCAM                        000019
10000000000000000000000900436045841800000023286               0002020000000000000000000000002               01000002328620111900000000142000000000001N020519000000000000000070000000000000000000000000000000000000000000000100010614642701ALESSANDRA MARTINS BORBA DA ROCHA       Rua José Raunheitti ,Casa3 ,394                     26285080Ref. curso de pós-graduação EaD UCAM                        000020
10000000000000000000000900436045841800000023287               0002020000000000000000000000002               01000002328720121900000000142000000000001N020519000000000000000070000000000000000000000000000000000000000000000100010614642701ALESSANDRA MARTINS BORBA DA ROCHA       Rua José Raunheitti ,Casa3 ,394                     26285080Ref. curso de pós-graduação EaD UCAM                        000021
10000000000000000000000900436045841800000023288               0002020000000000000000000000002               01000002328820012000000000142000000000001N020519000000000000000070000000000000000000000000000000000000000000000100010614642701ALESSANDRA MARTINS BORBA DA ROCHA       Rua José Raunheitti ,Casa3 ,394                     26285080Ref. curso de pós-graduação EaD UCAM                        000022
10000000000000000000000900436045841800000023289               0002020000000000000000000000002               01000002328920022000000000142000000000001N020519000000000000000070000000000000000000000000000000000000000000000100010614642701ALESSANDRA MARTINS BORBA DA ROCHA       Rua José Raunheitti ,Casa3 ,394                     26285080Ref. curso de pós-graduação EaD UCAM                        000023
10000000000000000000000900436045841800000023290               0002020000000000000000000000002               01000002329020032000000000142000000000001N020519000000000000000070000000000000000000000000000000000000000000000100010614642701ALESSANDRA MARTINS BORBA DA ROCHA       Rua José Raunheitti ,Casa3 ,394                     26285080Ref. curso de pós-graduação EaD UCAM                        000024
10000000000000000000000900436045841800000023291               0002020000000000000000000000002               01000002329120042000000000142090000000001N020519000000000000000070000000000000000000000000000000000000000000000100010614642701ALESSANDRA MARTINS BORBA DA ROCHA       Rua José Raunheitti ,Casa3 ,394                     26285080Ref. curso de pós-graduação EaD UCAM                        000025
10000000000000000000000900436045841800000023280               0002020000000000000000000000002               01000002328020051900000000141900000000001N020519000000000000000070000000000000000000000000000000000000000000000100010614642701ALESSANDRA MARTINS BORBA DA ROCHA       Rua José Raunheitti ,Casa3 ,394                     26285080Ref. curso de pós-graduação EaD UCAM                        000026
10000000000000000000000900436045841800000023281               0002020000000000000000000000002               01000002328120061900000000142000000000001N020519000000000000000070000000000000000000000000000000000000000000000100010614642701ALESSANDRA MARTINS BORBA DA ROCHA       Rua José Raunheitti ,Casa3 ,394                     26285080Ref. curso de pós-graduação EaD UCAM                        000027
10000000000000000000000900436045841800000023282               0002020000000000000000000000002               01000002328220071900000000142000000000001N020519000000000000000070000000000000000000000000000000000000000000000100010614642701ALESSANDRA MARTINS BORBA DA ROCHA       Rua José Raunheitti ,Casa3 ,394                     26285080Ref. curso de pós-graduação EaD UCAM                        000028
10000000000000000000000900436045841800000023283               0002020000000000000000000000002               01000002328320081900000000142000000000001N020519000000000000000070000000000000000000000000000000000000000000000100010614642701ALESSANDRA MARTINS BORBA DA ROCHA       Rua José Raunheitti ,Casa3 ,394                     26285080Ref. curso de pós-graduação EaD UCAM                        000029
10000000000000000000000900436045841800000023284               0002020000000000000000000000002               01000002328420091900000000142000000000001N020519000000000000000070000000000000000000000000000000000000000000000100010614642701ALESSANDRA MARTINS BORBA DA ROCHA       Rua José Raunheitti ,Casa3 ,394                     26285080Ref. curso de pós-graduação EaD UCAM                        000030
10000000000000000000000900436045841800000023285               0002020000000000000000000000002               01000002328520101900000000142000000000001N020519000000000000000070000000000000000000000000000000000000000000000100010614642701ALESSANDRA MARTINS BORBA DA ROCHA       Rua José Raunheitti ,Casa3 ,394                     26285080Ref. curso de pós-graduação EaD UCAM                        000031
10000000000000000000000900436045841800000023286               0002020000000000000000000000002               01000002328620111900000000142000000000001N020519000000000000000070000000000000000000000000000000000000000000000100010614642701ALESSANDRA MARTINS BORBA DA ROCHA       Rua José Raunheitti ,Casa3 ,394                     26285080Ref. curso de pós-graduação EaD UCAM                        000032
10000000000000000000000900436045841800000023287               0002020000000000000000000000002               01000002328720121900000000142000000000001N020519000000000000000070000000000000000000000000000000000000000000000100010614642701ALESSANDRA MARTINS BORBA DA ROCHA       Rua José Raunheitti ,Casa3 ,394                     26285080Ref. curso de pós-graduação EaD UCAM                        000033
10000000000000000000000900436045841800000023288               0002020000000000000000000000002               01000002328820012000000000142000000000001N020519000000000000000070000000000000000000000000000000000000000000000100010614642701ALESSANDRA MARTINS BORBA DA ROCHA       Rua José Raunheitti ,Casa3 ,395                     26285080Ref. curso de pós-graduação EaD UCAM                        000034
10000000000000000000000900436045841800000023289               0002020000000000000000000000002               01000002328920022000000000142000000000001N020519000000000000000070000000000000000000000000000000000000000000000100010614642701ALESSANDRA MARTINS BORBA DA ROCHA       Rua José Raunheitti ,Casa3 ,395                     26285080Ref. curso de pós-graduação EaD UCAM                        000035
10000000000000000000000900436045841800000023290               0002020000000000000000000000002               01000002329020032000000000142000000000001N020519000000000000000070000000000000000000000000000000000000000000000100010614642701ALESSANDRA MARTINS BORBA DA ROCHA       Rua José Raunheitti ,Casa3 ,395                     26285080Ref. curso de pós-graduação EaD UCAM                        000036
10000000000000000000000900436045841800000023291               0002020000000000000000000000002               01000002329120042000000000142090000000001N020519000000000000000070000000000000000000000000000000000000000000000100010614642701ALESSANDRA MARTINS BORBA DA ROCHA       Rua José Raunheitti ,Casa3 ,395                     26285080Ref. curso de pós-graduação EaD UCAM                        000037
10000000000000000000000900436045841800000023280               0002020000000000000000000000002               01000002328020051900000000141900000000001N020519000000000000000070000000000000000000000000000000000000000000000100010614642701ALESSANDRA MARTINS BORBA DA ROCHA       Rua José Raunheitti ,Casa3 ,395                     26285080Ref. curso de pós-graduação EaD UCAM                        000038
10000000000000000000000900436045841800000023281               0002020000000000000000000000002               01000002328120061900000000142000000000001N020519000000000000000070000000000000000000000000000000000000000000000100010614642701ALESSANDRA MARTINS BORBA DA ROCHA       Rua José Raunheitti ,Casa3 ,395                     26285080Ref. curso de pós-graduação EaD UCAM                        000039
10000000000000000000000900436045841800000023282               0002020000000000000000000000002               01000002328220071900000000142000000000001N020519000000000000000070000000000000000000000000000000000000000000000100010614642701ALESSANDRA MARTINS BORBA DA ROCHA       Rua José Raunheitti ,Casa3 ,395                     26285080Ref. curso de pós-graduação EaD UCAM                        000040
10000000000000000000000900436045841800000023283               0002020000000000000000000000002               01000002328320081900000000142000000000001N020519000000000000000070000000000000000000000000000000000000000000000100010614642701ALESSANDRA MARTINS BORBA DA ROCHA       Rua José Raunheitti ,Casa3 ,395                     26285080Ref. curso de pós-graduação EaD UCAM                        000041
10000000000000000000000900436045841800000023284               0002020000000000000000000000002               01000002328420091900000000142000000000001N020519000000000000000070000000000000000000000000000000000000000000000100010614642701ALESSANDRA MARTINS BORBA DA ROCHA       Rua José Raunheitti ,Casa3 ,395                     26285080Ref. curso de pós-graduação EaD UCAM                        000042
10000000000000000000000900436045841800000023285               0002020000000000000000000000002               01000002328520101900000000142000000000001N020519000000000000000070000000000000000000000000000000000000000000000100010614642701ALESSANDRA MARTINS BORBA DA ROCHA       Rua José Raunheitti ,Casa3 ,395                     26285080Ref. curso de pós-graduação EaD UCAM                        000043
10000000000000000000000900436045841800000023286               0002020000000000000000000000002               01000002328620111900000000142000000000001N020519000000000000000070000000000000000000000000000000000000000000000100010614642701ALESSANDRA MARTINS BORBA DA ROCHA       Rua José Raunheitti ,Casa3 ,395                     26285080Ref. curso de pós-graduação EaD UCAM                        000044
10000000000000000000000900436045841800000023287               0002020000000000000000000000002               01000002328720121900000000142000000000001N020519000000000000000070000000000000000000000000000000000000000000000100010614642701ALESSANDRA MARTINS BORBA DA ROCHA       Rua José Raunheitti ,Casa3 ,395                     26285080Ref. curso de pós-graduação EaD UCAM                        000045
10000000000000000000000900436045841800000018234               0002020000000000000000000000002               01000001823410012000000000147880000000001N020519000000000000000060000000000000000000000000000000000000000000000100010795962673LAURYENE GERMANO CAMARA                 Rua Joaquim Neves Ferreira ,casa ,286               35030391Ref. curso de pós-graduação EaD UCAM                        000046
10000000000000000000000900436045841800000018226               0002020000000000000000000000002               01000001822610051900000000147900000000001N020519000000000000000060000000000000000000000000000000000000000000000100010795962673LAURYENE GERMANO CAMARA                 Rua Joaquim Neves Ferreira ,casa ,286               35030391Ref. curso de pós-graduação EaD UCAM                        000047
10000000000000000000000900436045841800000018227               0002020000000000000000000000002               01000001822710061900000000147900000000001N020519000000000000000060000000000000000000000000000000000000000000000100010795962673LAURYENE GERMANO CAMARA                 Rua Joaquim Neves Ferreira ,casa ,286               35030391Ref. curso de pós-graduação EaD UCAM                        000048
10000000000000000000000900436045841800000018228               0002020000000000000000000000002               01000001822810071900000000147900000000001N020519000000000000000060000000000000000000000000000000000000000000000100010795962673LAURYENE GERMANO CAMARA                 Rua Joaquim Neves Ferreira ,casa ,286               35030391Ref. curso de pós-graduação EaD UCAM                        000049
10000000000000000000000900436045841800000018229               0002020000000000000000000000002               01000001822910081900000000147900000000001N020519000000000000000060000000000000000000000000000000000000000000000100010795962673LAURYENE GERMANO CAMARA                 Rua Joaquim Neves Ferreira ,casa ,286               35030391Ref. curso de pós-graduação EaD UCAM                        000050
10000000000000000000000900436045841800000018230               0002020000000000000000000000002               01000001823010091900000000147900000000001N020519000000000000000060000000000000000000000000000000000000000000000100010795962673LAURYENE GERMANO CAMARA                 Rua Joaquim Neves Ferreira ,casa ,286               35030391Ref. curso de pós-graduação EaD UCAM                        000051
10000000000000000000000900436045841800000018231               0002020000000000000000000000002               01000001823110101900000000147900000000001N020519000000000000000060000000000000000000000000000000000000000000000100010795962673LAURYENE GERMANO CAMARA                 Rua Joaquim Neves Ferreira ,casa ,286               35030391Ref. curso de pós-graduação EaD UCAM                        000052
10000000000000000000000900436045841800000018232               0002020000000000000000000000002               01000001823210111900000000147880000000001N020519000000000000000060000000000000000000000000000000000000000000000100010795962673LAURYENE GERMANO CAMARA                 Rua Joaquim Neves Ferreira ,casa ,286               35030391Ref. curso de pós-graduação EaD UCAM                        000053
10000000000000000000000900436045841800000018233               0002020000000000000000000000002               01000001823310121900000000147880000000001N020519000000000000000060000000000000000000000000000000000000000000000100010795962673LAURYENE GERMANO CAMARA                 Rua Joaquim Neves Ferreira ,casa ,286               35030391Ref. curso de pós-graduação EaD UCAM                        000054
10000000000000000000000900436045841800000021695               0002020000000000000000000000002               01000002169505091900000000186040000000001N020519000000000000000070000000000000000000000000000000000000000000000100000028527720Bettina Bruno Santo Anastacio           Rua Raul Pompéia ,Apt 503 ,14                       22080002Ref. curso de pós-graduação EaD UCAM                        000055
10000000000000000000000900436045841800000018234               0002020000000000000000000000002               01000001823410012000000000147880000000001N020519000000000000000060000000000000000000000000000000000000000000000100010795962673LAURYENE GERMANO CAMARA                 Rua Joaquim Neves Ferreira ,casa ,286               35030391Ref. curso de pós-graduação EaD UCAM                        000056
10000000000000000000000900436045841800000018226               0002020000000000000000000000002               01000001822610051900000000147900000000001N020519000000000000000060000000000000000000000000000000000000000000000100010795962673LAURYENE GERMANO CAMARA                 Rua Joaquim Neves Ferreira ,casa ,286               35030391Ref. curso de pós-graduação EaD UCAM                        000057
10000000000000000000000900436045841800000018227               0002020000000000000000000000002               01000001822710061900000000147900000000001N020519000000000000000060000000000000000000000000000000000000000000000100010795962673LAURYENE GERMANO CAMARA                 Rua Joaquim Neves Ferreira ,casa ,286               35030391Ref. curso de pós-graduação EaD UCAM                        000058
10000000000000000000000900436045841800000018228               0002020000000000000000000000002               01000001822810071900000000147900000000001N020519000000000000000060000000000000000000000000000000000000000000000100010795962673LAURYENE GERMANO CAMARA                 Rua Joaquim Neves Ferreira ,casa ,286               35030391Ref. curso de pós-graduação EaD UCAM                        000059
10000000000000000000000900436045841800000018229               0002020000000000000000000000002               01000001822910081900000000147900000000001N020519000000000000000060000000000000000000000000000000000000000000000100010795962673LAURYENE GERMANO CAMARA                 Rua Joaquim Neves Ferreira ,casa ,286               35030391Ref. curso de pós-graduação EaD UCAM                        000060
10000000000000000000000900436045841800000018230               0002020000000000000000000000002               01000001823010091900000000147900000000001N020519000000000000000060000000000000000000000000000000000000000000000100010795962673LAURYENE GERMANO CAMARA                 Rua Joaquim Neves Ferreira ,casa ,286               35030391Ref. curso de pós-graduação EaD UCAM                        000061
10000000000000000000000900436045841800000018231               0002020000000000000000000000002               01000001823110101900000000147900000000001N020519000000000000000060000000000000000000000000000000000000000000000100010795962673LAURYENE GERMANO CAMARA                 Rua Joaquim Neves Ferreira ,casa ,286               35030391Ref. curso de pós-graduação EaD UCAM                        000062
10000000000000000000000900436045841800000018232               0002020000000000000000000000002               01000001823210111900000000147880000000001N020519000000000000000060000000000000000000000000000000000000000000000100010795962673LAURYENE GERMANO CAMARA                 Rua Joaquim Neves Ferreira ,casa ,286               35030391Ref. curso de pós-graduação EaD UCAM                        000063
10000000000000000000000900436045841800000018233               0002020000000000000000000000002               01000001823310121900000000147880000000001N020519000000000000000060000000000000000000000000000000000000000000000100010795962673LAURYENE GERMANO CAMARA                 Rua Joaquim Neves Ferreira ,casa ,286               35030391Ref. curso de pós-graduação EaD UCAM                        000064
10000000000000000000000900436045841800000017439               0002020000000000000000000000002               01000001743915012000000000118340000000001N020519000000000000000050000000000000000000000000000000000000000000000100010939826755VANESSA DE OLIVEIRA LAVANDEIRA          Rua Dona Emília , ,20                               20765110Ref. curso de pós-graduação EaD UCAM                        000065
10000000000000000000000900436045841800000017431               0002020000000000000000000000002               01000001743115051900000000118330000000001N020519000000000000000050000000000000000000000000000000000000000000000100010939826755VANESSA DE OLIVEIRA LAVANDEIRA          Rua Dona Emília , ,20                               20765110Ref. curso de pós-graduação EaD UCAM                        000066
10000000000000000000000900436045841800000017432               0002020000000000000000000000002               01000001743215061900000000118330000000001N020519000000000000000050000000000000000000000000000000000000000000000100010939826755VANESSA DE OLIVEIRA LAVANDEIRA          Rua Dona Emília , ,20                               20765110Ref. curso de pós-graduação EaD UCAM                        000067
10000000000000000000000900436045841800000017433               0002020000000000000000000000002               01000001743315071900000000118330000000001N020519000000000000000050000000000000000000000000000000000000000000000100010939826755VANESSA DE OLIVEIRA LAVANDEIRA          Rua Dona Emília , ,20                               20765110Ref. curso de pós-graduação EaD UCAM                        000068
10000000000000000000000900436045841800000017434               0002020000000000000000000000002               01000001743415081900000000118330000000001N020519000000000000000050000000000000000000000000000000000000000000000100010939826755VANESSA DE OLIVEIRA LAVANDEIRA          Rua Dona Emília , ,20                               20765110Ref. curso de pós-graduação EaD UCAM                        000069
10000000000000000000000900436045841800000017435               0002020000000000000000000000002               01000001743515091900000000118330000000001N020519000000000000000050000000000000000000000000000000000000000000000100010939826755VANESSA DE OLIVEIRA LAVANDEIRA          Rua Dona Emília , ,20                               20765110Ref. curso de pós-graduação EaD UCAM                        000070
10000000000000000000000900436045841800000017436               0002020000000000000000000000002               01000001743615101900000000118330000000001N020519000000000000000050000000000000000000000000000000000000000000000100010939826755VANESSA DE OLIVEIRA LAVANDEIRA          Rua Dona Emília , ,20                               20765110Ref. curso de pós-graduação EaD UCAM                        000071
10000000000000000000000900436045841800000017437               0002020000000000000000000000002               01000001743715111900000000118340000000001N020519000000000000000050000000000000000000000000000000000000000000000100010939826755VANESSA DE OLIVEIRA LAVANDEIRA          Rua Dona Emília , ,20                               20765110Ref. curso de pós-graduação EaD UCAM                        000072
10000000000000000000000900436045841800000017438               0002020000000000000000000000002               01000001743815121900000000118340000000001N020519000000000000000050000000000000000000000000000000000000000000000100010939826755VANESSA DE OLIVEIRA LAVANDEIRA          Rua Dona Emília , ,20                               20765110Ref. curso de pós-graduação EaD UCAM                        000073
10000000000000000000000900436045841800000023019               0002020000000000000000000000002               01000002301910012000000000142000000000001N020519000000000000000070000000000000000000000000000000000000000000000100011029845662Ariel de Oliveira Scarabeli             Rua Dr Otacilio de Aquino ,Casa ,37                 28360000Ref. curso de pós-graduação EaD UCAM                        000074
10000000000000000000000900436045841800000023020               0002020000000000000000000000002               01000002302010022000000000142000000000001N020519000000000000000070000000000000000000000000000000000000000000000100011029845662Ariel de Oliveira Scarabeli             Rua Dr Otacilio de Aquino ,Casa ,37                 28360000Ref. curso de pós-graduação EaD UCAM                        000075
10000000000000000000000900436045841800000023021               0002020000000000000000000000002               01000002302110032000000000142000000000001N020519000000000000000070000000000000000000000000000000000000000000000100011029845662Ariel de Oliveira Scarabeli             Rua Dr Otacilio de Aquino ,Casa ,37                 28360000Ref. curso de pós-graduação EaD UCAM                        000076
10000000000000000000000900436045841800000023022               0002020000000000000000000000002               01000002302210042000000000142000000000001N020519000000000000000070000000000000000000000000000000000000000000000100011029845662Ariel de Oliveira Scarabeli             Rua Dr Otacilio de Aquino ,Casa ,37                 28360000Ref. curso de pós-graduação EaD UCAM                        000077
10000000000000000000000900436045841800000023012               0002020000000000000000000000002               01000002301210061900000000142000000000001N020519000000000000000070000000000000000000000000000000000000000000000100011029845662Ariel de Oliveira Scarabeli             Rua Dr Otacilio de Aquino ,Casa ,37                 28360000Ref. curso de pós-graduação EaD UCAM                        000078
10000000000000000000000900436045841800000023013               0002020000000000000000000000002               01000002301310071900000000142000000000001N020519000000000000000070000000000000000000000000000000000000000000000100011029845662Ariel de Oliveira Scarabeli             Rua Dr Otacilio de Aquino ,Casa ,37                 28360000Ref. curso de pós-graduação EaD UCAM                        000079
10000000000000000000000900436045841800000023014               0002020000000000000000000000002               01000002301410081900000000142000000000001N020519000000000000000070000000000000000000000000000000000000000000000100011029845662Ariel de Oliveira Scarabeli             Rua Dr Otacilio de Aquino ,Casa ,37                 28360000Ref. curso de pós-graduação EaD UCAM                        000080
10000000000000000000000900436045841800000023015               0002020000000000000000000000002               01000002301510091900000000142000000000001N020519000000000000000070000000000000000000000000000000000000000000000100011029845662Ariel de Oliveira Scarabeli             Rua Dr Otacilio de Aquino ,Casa ,37                 28360000Ref. curso de pós-graduação EaD UCAM                        000081
10000000000000000000000900436045841800000023016               0002020000000000000000000000002               01000002301610101900000000142000000000001N020519000000000000000070000000000000000000000000000000000000000000000100011029845662Ariel de Oliveira Scarabeli             Rua Dr Otacilio de Aquino ,Casa ,37                 28360000Ref. curso de pós-graduação EaD UCAM                        000082
10000000000000000000000900436045841800000023017               0002020000000000000000000000002               01000002301710111900000000142000000000001N020519000000000000000070000000000000000000000000000000000000000000000100011029845662Ariel de Oliveira Scarabeli             Rua Dr Otacilio de Aquino ,Casa ,37                 28360000Ref. curso de pós-graduação EaD UCAM                        000083
10000000000000000000000900436045841800000023018               0002020000000000000000000000002               01000002301810121900000000142000000000001N020519000000000000000070000000000000000000000000000000000000000000000100011029845662Ariel de Oliveira Scarabeli             Rua Dr Otacilio de Aquino ,Casa ,37                 28360000Ref. curso de pós-graduação EaD UCAM                        000084
10000000000000000000000900436045841800000023019               0002020000000000000000000000002               01000002301910012000000000142000000000001N020519000000000000000070000000000000000000000000000000000000000000000100011029845662Ariel de Oliveira Scarabeli             Rua Dr Otacilio de Aquino ,Casa ,37                 28360000Ref. curso de pós-graduação EaD UCAM                        000085
10000000000000000000000900436045841800000018885               0002020000000000000000000000002               01000001888501012000000000166850000000001N020519000000000000000060000000000000000000000000000000000000000000000100001075026741EDUARDO LÚCIO COSTA GAMA                Rua Doutor Tabajara de Araújo Gomes ,54             24350290Ref. curso de pós-graduação EaD UCAM                        000086
10000000000000000000000900436045841800000023020               0002020000000000000000000000002               01000002302010022000000000142000000000001N020519000000000000000070000000000000000000000000000000000000000000000100011029845662Ariel de Oliveira Scarabeli             Rua Dr Otacilio de Aquino ,Casa ,37                 28360000Ref. curso de pós-graduação EaD UCAM                        000087
10000000000000000000000900436045841800000023021               0002020000000000000000000000002               01000002302110032000000000142000000000001N020519000000000000000070000000000000000000000000000000000000000000000100011029845662Ariel de Oliveira Scarabeli             Rua Dr Otacilio de Aquino ,Casa ,37                 28360000Ref. curso de pós-graduação EaD UCAM                        000088
10000000000000000000000900436045841800000023022               0002020000000000000000000000002               01000002302210042000000000142000000000001N020519000000000000000070000000000000000000000000000000000000000000000100011029845662Ariel de Oliveira Scarabeli             Rua Dr Otacilio de Aquino ,Casa ,37                 28360000Ref. curso de pós-graduação EaD UCAM                        000089
10000000000000000000000900436045841800000023012               0002020000000000000000000000002               01000002301210061900000000142000000000001N020519000000000000000070000000000000000000000000000000000000000000000100011029845662Ariel de Oliveira Scarabeli             Rua Dr Otacilio de Aquino ,Casa ,37                 28360000Ref. curso de pós-graduação EaD UCAM                        000090
10000000000000000000000900436045841800000023013               0002020000000000000000000000002               01000002301310071900000000142000000000001N020519000000000000000070000000000000000000000000000000000000000000000100011029845662Ariel de Oliveira Scarabeli             Rua Dr Otacilio de Aquino ,Casa ,37                 28360000Ref. curso de pós-graduação EaD UCAM                        000091
10000000000000000000000900436045841800000023014               0002020000000000000000000000002               01000002301410081900000000142000000000001N020519000000000000000070000000000000000000000000000000000000000000000100011029845662Ariel de Oliveira Scarabeli             Rua Dr Otacilio de Aquino ,Casa ,37                 28360000Ref. curso de pós-graduação EaD UCAM                        000092
10000000000000000000000900436045841800000023015               0002020000000000000000000000002               01000002301510091900000000142000000000001N020519000000000000000070000000000000000000000000000000000000000000000100011029845662Ariel de Oliveira Scarabeli             Rua Dr Otacilio de Aquino ,Casa ,37                 28360000Ref. curso de pós-graduação EaD UCAM                        000093
10000000000000000000000900436045841800000023016               0002020000000000000000000000002               01000002301610101900000000142000000000001N020519000000000000000070000000000000000000000000000000000000000000000100011029845662Ariel de Oliveira Scarabeli             Rua Dr Otacilio de Aquino ,Casa ,37                 28360000Ref. curso de pós-graduação EaD UCAM                        000094
10000000000000000000000900436045841800000023017               0002020000000000000000000000002               01000002301710111900000000142000000000001N020519000000000000000070000000000000000000000000000000000000000000000100011029845662Ariel de Oliveira Scarabeli             Rua Dr Otacilio de Aquino ,Casa ,37                 28360000Ref. curso de pós-graduação EaD UCAM                        000095
10000000000000000000000900436045841800000023018               0002020000000000000000000000002               01000002301810121900000000142000000000001N020519000000000000000070000000000000000000000000000000000000000000000100011029845662Ariel de Oliveira Scarabeli             Rua Dr Otacilio de Aquino ,Casa ,37                 28360000Ref. curso de pós-graduação EaD UCAM                        000096
10000000000000000000000900436045841800000018886               0002020000000000000000000000002               01000001888601022000000000166850000000001N020519000000000000000060000000000000000000000000000000000000000000000100001075026741EDUARDO LÚCIO COSTA GAMA                Rua Doutor Tabajara de Araújo Gomes ,54             24350290Ref. curso de pós-graduação EaD UCAM                        000097
10000000000000000000000900436045841800000017003               0002020000000000000000000000002               01000001700318051900000000156200000000001N020519000000000000000050000000000000000000000000000000000000000000000100011235198707Valéria Alves da Rosa Silva             Rua Cinquenta e Dois ,Rua 52, Quadra:16             24808120Ref. curso de pós-graduação EaD UCAM                        000098
10000000000000000000000900436045841800000017004               0002020000000000000000000000002               01000001700418061900000000156200000000001N020519000000000000000050000000000000000000000000000000000000000000000100011235198707Valéria Alves da Rosa Silva             Rua Cinquenta e Dois ,Rua 52, Quadra:16             24808120Ref. curso de pós-graduação EaD UCAM                        000099
10000000000000000000000900436045841800000017005               0002020000000000000000000000002               01000001700518071900000000156200000000001N020519000000000000000050000000000000000000000000000000000000000000000100011235198707Valéria Alves da Rosa Silva             Rua Cinquenta e Dois ,Rua 52, Quadra:16             24808120Ref. curso de pós-graduação EaD UCAM                        000100
10000000000000000000000900436045841800000017006               0002020000000000000000000000002               01000001700618081900000000156200000000001N020519000000000000000050000000000000000000000000000000000000000000000100011235198707Valéria Alves da Rosa Silva             Rua Cinquenta e Dois ,Rua 52, Quadra:16             24808120Ref. curso de pós-graduação EaD UCAM                        000101
10000000000000000000000900436045841800000017007               0002020000000000000000000000002               01000001700718091900000000156200000000001N020519000000000000000050000000000000000000000000000000000000000000000100011235198707Valéria Alves da Rosa Silva             Rua Cinquenta e Dois ,Rua 52, Quadra:16             24808120Ref. curso de pós-graduação EaD UCAM                        000102
10000000000000000000000900436045841800000017008               0002020000000000000000000000002               01000001700818101900000000156190000000001N020519000000000000000050000000000000000000000000000000000000000000000100011235198707Valéria Alves da Rosa Silva             Rua Cinquenta e Dois ,Rua 52, Quadra:16             24808120Ref. curso de pós-graduação EaD UCAM                        000103
10000000000000000000000900436045841800000017009               0002020000000000000000000000002               01000001700918111900000000156190000000001N020519000000000000000050000000000000000000000000000000000000000000000100011235198707Valéria Alves da Rosa Silva             Rua Cinquenta e Dois ,Rua 52, Quadra:16             24808120Ref. curso de pós-graduação EaD UCAM                        000104
10000000000000000000000900436045841800000017010               0002020000000000000000000000002               01000001701018121900000000156190000000001N020519000000000000000050000000000000000000000000000000000000000000000100011235198707Valéria Alves da Rosa Silva             Rua Cinquenta e Dois ,Rua 52, Quadra:16             24808120Ref. curso de pós-graduação EaD UCAM                        000105
10000000000000000000000900436045841800000022229               0002020000000000000000000000002               01000002222901012000000000152650000000001N020519000000000000000070000000000000000000000000000000000000000000000100011251991807Vandira De Souza Mendes Delgado         Av. Fujio Iwai , ,920                               11680000Ref. curso de pós-graduação EaD UCAM                        000106
10000000000000000000000900436045841800000022230               0002020000000000000000000000002               01000002223001022000000000152650000000001N020519000000000000000070000000000000000000000000000000000000000000000100011251991807Vandira De Souza Mendes Delgado         Av. Fujio Iwai , ,920                               11680000Ref. curso de pós-graduação EaD UCAM                        000107
10000000000000000000000900436045841800000022231               0002020000000000000000000000002               01000002223101032000000000152650000000001N020519000000000000000070000000000000000000000000000000000000000000000100011251991807Vandira De Souza Mendes Delgado         Av. Fujio Iwai , ,920                               11680000Ref. curso de pós-graduação EaD UCAM                        000108
10000000000000000000000900436045841800000022232               0002020000000000000000000000002               01000002223201042000000000152650000000001N020519000000000000000070000000000000000000000000000000000000000000000100011251991807Vandira De Souza Mendes Delgado         Av. Fujio Iwai , ,920                               11680000Ref. curso de pós-graduação EaD UCAM                        000109
10000000000000000000000900436045841800000022221               0002020000000000000000000000002               01000002222101051900000000152650000000001N020519000000000000000070000000000000000000000000000000000000000000000100011251991807Vandira De Souza Mendes Delgado         Av. Fujio Iwai , ,920                               11680000Ref. curso de pós-graduação EaD UCAM                        000110
10000000000000000000000900436045841800000022233               0002020000000000000000000000002               01000002223301052000000000152650000000001N020519000000000000000070000000000000000000000000000000000000000000000100011251991807Vandira De Souza Mendes Delgado         Av. Fujio Iwai , ,920                               11680000Ref. curso de pós-graduação EaD UCAM                        000111
10000000000000000000000900436045841800000022222               0002020000000000000000000000002               01000002222201061900000000152650000000001N020519000000000000000070000000000000000000000000000000000000000000000100011251991807Vandira De Souza Mendes Delgado         Av. Fujio Iwai , ,920                               11680000Ref. curso de pós-graduação EaD UCAM                        000112
10000000000000000000000900436045841800000022234               0002020000000000000000000000002               01000002223401062000000000152650000000001N020519000000000000000070000000000000000000000000000000000000000000000100011251991807Vandira De Souza Mendes Delgado         Av. Fujio Iwai , ,920                               11680000Ref. curso de pós-graduação EaD UCAM                        000113
10000000000000000000000900436045841800000021696               0002020000000000000000000000002               01000002169605101900000000186040000000001N020519000000000000000070000000000000000000000000000000000000000000000100000028527720Bettina Bruno Santo Anastacio           Rua Raul Pompéia ,Apt 503 ,14                       22080002Ref. curso de pós-graduação EaD UCAM                        000114
10000000000000000000000900436045841800000018887               0002020000000000000000000000002               01000001888701032000000000166850000000001N020519000000000000000060000000000000000000000000000000000000000000000100001075026741EDUARDO LÚCIO COSTA GAMA                Rua Doutor Tabajara de Araújo Gomes ,54             24350290Ref. curso de pós-graduação EaD UCAM                        000115
10000000000000000000000900436045841800000022223               0002020000000000000000000000002               01000002222301071900000000152650000000001N020519000000000000000070000000000000000000000000000000000000000000000100011251991807Vandira De Souza Mendes Delgado         Av. Fujio Iwai , ,920                               11680000Ref. curso de pós-graduação EaD UCAM                        000116
10000000000000000000000900436045841800000022235               0002020000000000000000000000002               01000002223501072000000000152650000000001N020519000000000000000070000000000000000000000000000000000000000000000100011251991807Vandira De Souza Mendes Delgado         Av. Fujio Iwai , ,920                               11680000Ref. curso de pós-graduação EaD UCAM                        000117
10000000000000000000000900436045841800000022224               0002020000000000000000000000002               01000002222401081900000000152650000000001N020519000000000000000070000000000000000000000000000000000000000000000100011251991807Vandira De Souza Mendes Delgado         Av. Fujio Iwai , ,920                               11680000Ref. curso de pós-graduação EaD UCAM                        000118
10000000000000000000000900436045841800000022225               0002020000000000000000000000002               01000002222501091900000000152650000000001N020519000000000000000070000000000000000000000000000000000000000000000100011251991807Vandira De Souza Mendes Delgado         Av. Fujio Iwai , ,920                               11680000Ref. curso de pós-graduação EaD UCAM                        000119
10000000000000000000000900436045841800000022226               0002020000000000000000000000002               01000002222601101900000000152650000000001N020519000000000000000070000000000000000000000000000000000000000000000100011251991807Vandira De Souza Mendes Delgado         Av. Fujio Iwai , ,920                               11680000Ref. curso de pós-graduação EaD UCAM                        000120
10000000000000000000000900436045841800000022227               0002020000000000000000000000002               01000002222701111900000000152650000000001N020519000000000000000070000000000000000000000000000000000000000000000100011251991807Vandira De Souza Mendes Delgado         Av. Fujio Iwai , ,920                               11680000Ref. curso de pós-graduação EaD UCAM                        000121
10000000000000000000000900436045841800000022228               0002020000000000000000000000002               01000002222801121900000000152650000000001N020519000000000000000070000000000000000000000000000000000000000000000100011251991807Vandira De Souza Mendes Delgado         Av. Fujio Iwai , ,920                               11680000Ref. curso de pós-graduação EaD UCAM                        000122
10000000000000000000000900436045841800000011376               0002020000000000000000000000002               01000001137612051900000000147910000000001N020519000000000000000030000000000000000000000000000000000000000000000100011401707750MELISSA DE BRITO FONSECA                Rua Irmã Irene ,CASA ,88                            23912425Ref. curso de pós-graduação EaD UCAM                        000123
10000000000000000000000900436045841800000011377               0002020000000000000000000000002               01000001137712061900000000147910000000001N020519000000000000000030000000000000000000000000000000000000000000000100011401707750MELISSA DE BRITO FONSECA                Rua Irmã Irene ,CASA ,88                            23912425Ref. curso de pós-graduação EaD UCAM                        000124
10000000000000000000000900436045841800000018888               0002020000000000000000000000002               01000001888801042000000000166850000000001N020519000000000000000060000000000000000000000000000000000000000000000100001075026741EDUARDO LÚCIO COSTA GAMA                Rua Doutor Tabajara de Araújo Gomes ,54             24350290Ref. curso de pós-graduação EaD UCAM                        000125
10000000000000000000000900436045841800000016779               0002020000000000000000000000002               01000001677910012000000000172440000000001N020519000000000000000050000000000000000000000000000000000000000000000100011801201676Thaismara Alves Santos                  Rua Atlântico n 115 bairro Planalto , ,             39650000Ref. curso de pós-graduação EaD UCAM                        000126
10000000000000000000000900436045841800000016780               0002020000000000000000000000002               01000001678010022000000000172440000000001N020519000000000000000050000000000000000000000000000000000000000000000100011801201676Thaismara Alves Santos                  Rua Atlântico n 115 bairro Planalto , ,             39650000Ref. curso de pós-graduação EaD UCAM                        000127
10000000000000000000000900436045841800000016771               0002020000000000000000000000002               01000001677110051900000000172450000000001N020519000000000000000050000000000000000000000000000000000000000000000100011801201676Thaismara Alves Santos                  Rua Atlântico n 115 bairro Planalto , ,             39650000Ref. curso de pós-graduação EaD UCAM                        000128
10000000000000000000000900436045841800000016772               0002020000000000000000000000002               01000001677210061900000000172450000000001N020519000000000000000050000000000000000000000000000000000000000000000100011801201676Thaismara Alves Santos                  Rua Atlântico n 115 bairro Planalto , ,             39650000Ref. curso de pós-graduação EaD UCAM                        000129
10000000000000000000000900436045841800000016773               0002020000000000000000000000002               01000001677310071900000000172450000000001N020519000000000000000050000000000000000000000000000000000000000000000100011801201676Thaismara Alves Santos                  Rua Atlântico n 115 bairro Planalto , ,             39650000Ref. curso de pós-graduação EaD UCAM                        000130
10000000000000000000000900436045841800000016774               0002020000000000000000000000002               01000001677410081900000000172450000000001N020519000000000000000050000000000000000000000000000000000000000000000100011801201676Thaismara Alves Santos                  Rua Atlântico n 115 bairro Planalto , ,             39650000Ref. curso de pós-graduação EaD UCAM                        000131
10000000000000000000000900436045841800000016775               0002020000000000000000000000002               01000001677510091900000000172450000000001N020519000000000000000050000000000000000000000000000000000000000000000100011801201676Thaismara Alves Santos                  Rua Atlântico n 115 bairro Planalto , ,             39650000Ref. curso de pós-graduação EaD UCAM                        000132
10000000000000000000000900436045841800000018877               0002020000000000000000000000002               01000001887701051900000000166850000000001N020519000000000000000060000000000000000000000000000000000000000000000100001075026741EDUARDO LÚCIO COSTA GAMA                Rua Doutor Tabajara de Araújo Gomes ,54             24350290Ref. curso de pós-graduação EaD UCAM                        000133
10000000000000000000000900436045841800000016776               0002020000000000000000000000002               01000001677610101900000000172450000000001N020519000000000000000050000000000000000000000000000000000000000000000100011801201676Thaismara Alves Santos                  Rua Atlântico n 115 bairro Planalto , ,             39650000Ref. curso de pós-graduação EaD UCAM                        000134
10000000000000000000000900436045841800000016777               0002020000000000000000000000002               01000001677710111900000000172450000000001N020519000000000000000050000000000000000000000000000000000000000000000100011801201676Thaismara Alves Santos                  Rua Atlântico n 115 bairro Planalto , ,             39650000Ref. curso de pós-graduação EaD UCAM                        000135
10000000000000000000000900436045841800000016778               0002020000000000000000000000002               01000001677810121900000000172450000000001N020519000000000000000050000000000000000000000000000000000000000000000100011801201676Thaismara Alves Santos                  Rua Atlântico n 115 bairro Planalto , ,             39650000Ref. curso de pós-graduação EaD UCAM                        000136
10000000000000000000000900436045841800000018889               0002020000000000000000000000002               01000001888901052000000000166850000000001N020519000000000000000060000000000000000000000000000000000000000000000100001075026741EDUARDO LÚCIO COSTA GAMA                Rua Doutor Tabajara de Araújo Gomes ,54             24350290Ref. curso de pós-graduação EaD UCAM                        000137
10000000000000000000000900436045841800000018878               0002020000000000000000000000002               01000001887801061900000000166850000000001N020519000000000000000060000000000000000000000000000000000000000000000100001075026741EDUARDO LÚCIO COSTA GAMA                Rua Doutor Tabajara de Araújo Gomes ,54             24350290Ref. curso de pós-graduação EaD UCAM                        000138
10000000000000000000000900436045841800000018879               0002020000000000000000000000002               01000001887901071900000000166850000000001N020519000000000000000060000000000000000000000000000000000000000000000100001075026741EDUARDO LÚCIO COSTA GAMA                Rua Doutor Tabajara de Araújo Gomes ,54             24350290Ref. curso de pós-graduação EaD UCAM                        000139
10000000000000000000000900436045841800000016900               0002020000000000000000000000002               01000001690010051900000000186350000000001N020519000000000000000050000000000000000000000000000000000000000000000100012321955880Patri­cia do Nascimento Gomes           Rua Michele Tenace , ,60                            08501105Ref. curso de pós-graduação EaD UCAM                        000140
10000000000000000000000900436045841800000016901               0002020000000000000000000000002               01000001690110061900000000186350000000001N020519000000000000000050000000000000000000000000000000000000000000000100012321955880Patri­cia do Nascimento Gomes           Rua Michele Tenace , ,60                            08501105Ref. curso de pós-graduação EaD UCAM                        000141
10000000000000000000000900436045841800000018880               0002020000000000000000000000002               01000001888001081900000000166850000000001N020519000000000000000060000000000000000000000000000000000000000000000100001075026741EDUARDO LÚCIO COSTA GAMA                Rua Doutor Tabajara de Araújo Gomes ,54             24350290Ref. curso de pós-graduação EaD UCAM                        000142
10000000000000000000000900436045841800000016902               0002020000000000000000000000002               01000001690210071900000000186350000000001N020519000000000000000050000000000000000000000000000000000000000000000100012321955880Patri­cia do Nascimento Gomes           Rua Michele Tenace , ,60                            08501105Ref. curso de pós-graduação EaD UCAM                        000143
10000000000000000000000900436045841800000016903               0002020000000000000000000000002               01000001690310081900000000186350000000001N020519000000000000000050000000000000000000000000000000000000000000000100012321955880Patri­cia do Nascimento Gomes           Rua Michele Tenace , ,60                            08501105Ref. curso de pós-graduação EaD UCAM                        000144
10000000000000000000000900436045841800000016904               0002020000000000000000000000002               01000001690410091900000000186350000000001N020519000000000000000050000000000000000000000000000000000000000000000100012321955880Patri­cia do Nascimento Gomes           Rua Michele Tenace , ,60                            08501105Ref. curso de pós-graduação EaD UCAM                        000145
10000000000000000000000900436045841800000016905               0002020000000000000000000000002               01000001690510101900000000186350000000001N020519000000000000000050000000000000000000000000000000000000000000000100012321955880Patri­cia do Nascimento Gomes           Rua Michele Tenace , ,60                            08501105Ref. curso de pós-graduação EaD UCAM                        000146
10000000000000000000000900436045841800000016906               0002020000000000000000000000002               01000001690610111900000000186350000000001N020519000000000000000050000000000000000000000000000000000000000000000100012321955880Patri­cia do Nascimento Gomes           Rua Michele Tenace , ,60                            08501105Ref. curso de pós-graduação EaD UCAM                        000147
10000000000000000000000900436045841800000016907               0002020000000000000000000000002               01000001690710121900000000186350000000001N020519000000000000000050000000000000000000000000000000000000000000000100012321955880Patri­cia do Nascimento Gomes           Rua Michele Tenace , ,60                            08501105Ref. curso de pós-graduação EaD UCAM                        000148
10000000000000000000000900436045841800000012717               0002020000000000000000000000002               01000001271721051900000000147900000000001N020519000000000000000040000000000000000000000000000000000000000000000100012429833760PATRICIA COSTA DE ANDRADE               Rua Vergel SN Lt 32 Qd 31 , ,32                     23070400Ref. curso de pós-graduação EaD UCAM                        000149
10000000000000000000000900436045841800000018881               0002020000000000000000000000002               01000001888101091900000000166850000000001N020519000000000000000060000000000000000000000000000000000000000000000100001075026741EDUARDO LÚCIO COSTA GAMA                Rua Doutor Tabajara de Araújo Gomes ,54             24350290Ref. curso de pós-graduação EaD UCAM                        000150
10000000000000000000000900436045841800000012718               0002020000000000000000000000002               01000001271821061900000000147900000000001N020519000000000000000040000000000000000000000000000000000000000000000100012429833760PATRICIA COSTA DE ANDRADE               Rua Vergel SN Lt 32 Qd 31 , ,32                     23070400Ref. curso de pós-graduação EaD UCAM                        000151
10000000000000000000000900436045841800000012719               0002020000000000000000000000002               01000001271921071900000000147900000000001N020519000000000000000040000000000000000000000000000000000000000000000100012429833760PATRICIA COSTA DE ANDRADE               Rua Vergel SN Lt 32 Qd 31 , ,32                     23070400Ref. curso de pós-graduação EaD UCAM                        000152
10000000000000000000000900436045841800000019159               0002020000000000000000000000002               01000001915910012000000000169690000000001N020519000000000000000060000000000000000000000000000000000000000000000100012529789797Walter José Moreira Dias Junior         R CDOR QUEIROZ ,BLOCO B ,67                         24230220Ref. curso de pós-graduação EaD UCAM                        000153
10000000000000000000000900436045841800000019160               0002020000000000000000000000002               01000001916010022000000000169690000000001N020519000000000000000060000000000000000000000000000000000000000000000100012529789797Walter José Moreira Dias Junior         R CDOR QUEIROZ ,BLOCO B ,67                         24230220Ref. curso de pós-graduação EaD UCAM                        000154
10000000000000000000000900436045841800000019161               0002020000000000000000000000002               01000001916110032000000000169970000000001N020519000000000000000060000000000000000000000000000000000000000000000100012529789797Walter José Moreira Dias Junior         R CDOR QUEIROZ ,BLOCO B ,67                         24230220Ref. curso de pós-graduação EaD UCAM                        000155
10000000000000000000000900436045841800000019151               0002020000000000000000000000002               01000001915110051900000000169690000000001N020519000000000000000060000000000000000000000000000000000000000000000100012529789797Walter José Moreira Dias Junior         R CDOR QUEIROZ ,BLOCO B ,67                         24230220Ref. curso de pós-graduação EaD UCAM                        000156
10000000000000000000000900436045841800000019152               0002020000000000000000000000002               01000001915210061900000000169690000000001N020519000000000000000060000000000000000000000000000000000000000000000100012529789797Walter José Moreira Dias Junior         R CDOR QUEIROZ ,BLOCO B ,67                         24230220Ref. curso de pós-graduação EaD UCAM                        000157
10000000000000000000000900436045841800000019153               0002020000000000000000000000002               01000001915310071900000000169690000000001N020519000000000000000060000000000000000000000000000000000000000000000100012529789797Walter José Moreira Dias Junior         R CDOR QUEIROZ ,BLOCO B ,67                         24230220Ref. curso de pós-graduação EaD UCAM                        000158
10000000000000000000000900436045841800000019154               0002020000000000000000000000002               01000001915410081900000000169690000000001N020519000000000000000060000000000000000000000000000000000000000000000100012529789797Walter José Moreira Dias Junior         R CDOR QUEIROZ ,BLOCO B ,67                         24230220Ref. curso de pós-graduação EaD UCAM                        000159
10000000000000000000000900436045841800000019155               0002020000000000000000000000002               01000001915510091900000000169690000000001N020519000000000000000060000000000000000000000000000000000000000000000100012529789797Walter José Moreira Dias Junior         R CDOR QUEIROZ ,BLOCO B ,67                         24230220Ref. curso de pós-graduação EaD UCAM                        000160
10000000000000000000000900436045841800000018882               0002020000000000000000000000002               01000001888201101900000000166850000000001N020519000000000000000060000000000000000000000000000000000000000000000100001075026741EDUARDO LÚCIO COSTA GAMA                Rua Doutor Tabajara de Araújo Gomes ,54             24350290Ref. curso de pós-graduação EaD UCAM                        000161
10000000000000000000000900436045841800000019156               0002020000000000000000000000002               01000001915610101900000000169690000000001N020519000000000000000060000000000000000000000000000000000000000000000100012529789797Walter José Moreira Dias Junior         R CDOR QUEIROZ ,BLOCO B ,67                         24230220Ref. curso de pós-graduação EaD UCAM                        000162
10000000000000000000000900436045841800000019157               0002020000000000000000000000002               01000001915710111900000000169690000000001N020519000000000000000060000000000000000000000000000000000000000000000100012529789797Walter José Moreira Dias Junior         R CDOR QUEIROZ ,BLOCO B ,67                         24230220Ref. curso de pós-graduação EaD UCAM                        000163
10000000000000000000000900436045841800000019158               0002020000000000000000000000002               01000001915810121900000000169690000000001N020519000000000000000060000000000000000000000000000000000000000000000100012529789797Walter José Moreira Dias Junior         R CDOR QUEIROZ ,BLOCO B ,67                         24230220Ref. curso de pós-graduação EaD UCAM                        000164
10000000000000000000000900436045841800000019159               0002020000000000000000000000002               01000001915910012000000000169690000000001N020519000000000000000060000000000000000000000000000000000000000000000100012529789797Walter José Moreira Dias Junior         Rua Comendador Queiroz ,1112 ,67                    24230220Ref. curso de pós-graduação EaD UCAM                        000165
10000000000000000000000900436045841800000019160               0002020000000000000000000000002               01000001916010022000000000169690000000001N020519000000000000000060000000000000000000000000000000000000000000000100012529789797Walter José Moreira Dias Junior         Rua Comendador Queiroz ,1112 ,67                    24230220Ref. curso de pós-graduação EaD UCAM                        000166
10000000000000000000000900436045841800000019161               0002020000000000000000000000002               01000001916110032000000000169970000000001N020519000000000000000060000000000000000000000000000000000000000000000100012529789797Walter José Moreira Dias Junior         Rua Comendador Queiroz ,1112 ,67                    24230220Ref. curso de pós-graduação EaD UCAM                        000167
10000000000000000000000900436045841800000019151               0002020000000000000000000000002               01000001915110051900000000169690000000001N020519000000000000000060000000000000000000000000000000000000000000000100012529789797Walter José Moreira Dias Junior         Rua Comendador Queiroz ,1112 ,67                    24230220Ref. curso de pós-graduação EaD UCAM                        000168
10000000000000000000000900436045841800000019152               0002020000000000000000000000002               01000001915210061900000000169690000000001N020519000000000000000060000000000000000000000000000000000000000000000100012529789797Walter José Moreira Dias Junior         Rua Comendador Queiroz ,1112 ,67                    24230220Ref. curso de pós-graduação EaD UCAM                        000169
10000000000000000000000900436045841800000019153               0002020000000000000000000000002               01000001915310071900000000169690000000001N020519000000000000000060000000000000000000000000000000000000000000000100012529789797Walter José Moreira Dias Junior         Rua Comendador Queiroz ,1112 ,67                    24230220Ref. curso de pós-graduação EaD UCAM                        000170
10000000000000000000000900436045841800000019154               0002020000000000000000000000002               01000001915410081900000000169690000000001N020519000000000000000060000000000000000000000000000000000000000000000100012529789797Walter José Moreira Dias Junior         Rua Comendador Queiroz ,1112 ,67                    24230220Ref. curso de pós-graduação EaD UCAM                        000171
10000000000000000000000900436045841800000021697               0002020000000000000000000000002               01000002169705111900000000186040000000001N020519000000000000000070000000000000000000000000000000000000000000000100000028527720Bettina Bruno Santo Anastacio           Rua Raul Pompéia ,Apt 503 ,14                       22080002Ref. curso de pós-graduação EaD UCAM                        000172
10000000000000000000000900436045841800000018883               0002020000000000000000000000002               01000001888301111900000000166850000000001N020519000000000000000060000000000000000000000000000000000000000000000100001075026741EDUARDO LÚCIO COSTA GAMA                Rua Doutor Tabajara de Araújo Gomes ,54             24350290Ref. curso de pós-graduação EaD UCAM                        000173
10000000000000000000000900436045841800000019155               0002020000000000000000000000002               01000001915510091900000000169690000000001N020519000000000000000060000000000000000000000000000000000000000000000100012529789797Walter José Moreira Dias Junior         Rua Comendador Queiroz ,1112 ,67                    24230220Ref. curso de pós-graduação EaD UCAM                        000174
10000000000000000000000900436045841800000019156               0002020000000000000000000000002               01000001915610101900000000169690000000001N020519000000000000000060000000000000000000000000000000000000000000000100012529789797Walter José Moreira Dias Junior         Rua Comendador Queiroz ,1112 ,67                    24230220Ref. curso de pós-graduação EaD UCAM                        000175
10000000000000000000000900436045841800000019157               0002020000000000000000000000002               01000001915710111900000000169690000000001N020519000000000000000060000000000000000000000000000000000000000000000100012529789797Walter José Moreira Dias Junior         Rua Comendador Queiroz ,1112 ,67                    24230220Ref. curso de pós-graduação EaD UCAM                        000176
10000000000000000000000900436045841800000019158               0002020000000000000000000000002               01000001915810121900000000169690000000001N020519000000000000000060000000000000000000000000000000000000000000000100012529789797Walter José Moreira Dias Junior         Rua Comendador Queiroz ,1112 ,67                    24230220Ref. curso de pós-graduação EaD UCAM                        000177
10000000000000000000000900436045841800000018323               0002020000000000000000000000002               01000001832307012000000000194650000000001N020519000000000000000060000000000000000000000000000000000000000000000100012586326830Marineide Ribeiro                       Rua Solar ,BL C AP 24 ,546                          02652160Ref. curso de pós-graduação EaD UCAM                        000178
10000000000000000000000900436045841800000018315               0002020000000000000000000000002               01000001831507051900000000194630000000001N020519000000000000000060000000000000000000000000000000000000000000000100012586326830Marineide Ribeiro                       Rua Solar ,BL C AP 24 ,546                          02652160Ref. curso de pós-graduação EaD UCAM                        000179
10000000000000000000000900436045841800000018316               0002020000000000000000000000002               01000001831607061900000000194630000000001N020519000000000000000060000000000000000000000000000000000000000000000100012586326830Marineide Ribeiro                       Rua Solar ,BL C AP 24 ,546                          02652160Ref. curso de pós-graduação EaD UCAM                        000180
10000000000000000000000900436045841800000018317               0002020000000000000000000000002               01000001831707071900000000194630000000001N020519000000000000000060000000000000000000000000000000000000000000000100012586326830Marineide Ribeiro                       Rua Solar ,BL C AP 24 ,546                          02652160Ref. curso de pós-graduação EaD UCAM                        000181
10000000000000000000000900436045841800000018318               0002020000000000000000000000002               01000001831807081900000000194630000000001N020519000000000000000060000000000000000000000000000000000000000000000100012586326830Marineide Ribeiro                       Rua Solar ,BL C AP 24 ,546                          02652160Ref. curso de pós-graduação EaD UCAM                        000182
10000000000000000000000900436045841800000018884               0002020000000000000000000000002               01000001888401121900000000166850000000001N020519000000000000000060000000000000000000000000000000000000000000000100001075026741EDUARDO LÚCIO COSTA GAMA                Rua Doutor Tabajara de Araújo Gomes ,54             24350290Ref. curso de pós-graduação EaD UCAM                        000183
10000000000000000000000900436045841800000018319               0002020000000000000000000000002               01000001831907091900000000194630000000001N020519000000000000000060000000000000000000000000000000000000000000000100012586326830Marineide Ribeiro                       Rua Solar ,BL C AP 24 ,546                          02652160Ref. curso de pós-graduação EaD UCAM                        000184
10000000000000000000000900436045841800000018320               0002020000000000000000000000002               01000001832007101900000000194630000000001N020519000000000000000060000000000000000000000000000000000000000000000100012586326830Marineide Ribeiro                       Rua Solar ,BL C AP 24 ,546                          02652160Ref. curso de pós-graduação EaD UCAM                        000185
10000000000000000000000900436045841800000018321               0002020000000000000000000000002               01000001832107111900000000194630000000001N020519000000000000000060000000000000000000000000000000000000000000000100012586326830Marineide Ribeiro                       Rua Solar ,BL C AP 24 ,546                          02652160Ref. curso de pós-graduação EaD UCAM                        000186
10000000000000000000000900436045841800000018322               0002020000000000000000000000002               01000001832207121900000000194640000000001N020519000000000000000060000000000000000000000000000000000000000000000100012586326830Marineide Ribeiro                       Rua Solar ,BL C AP 24 ,546                          02652160Ref. curso de pós-graduação EaD UCAM                        000187
10000000000000000000000900436045841800000016980               0002020000000000000000000000002               01000001698010012000000000256570000000001N020519000000000000000050000000000000000000000000000000000000000000000100001103192060Luzia Filomena de Souza Santos          Rua Plinio Andrade de Lucena 132 , ,132             95400000Ref. curso de pós-graduação EaD UCAM                        000188
10000000000000000000000900436045841800000012122               0002020000000000000000000000002               01000001212216051900000000088750000000001N020519000000000000000040000000000000000000000000000000000000000000000100012850725706VICTOR RANGEL LEAL DE LIMA              Rua Cinquenta e Três ,CASA ,19                      23898150Ref. curso de pós-graduação EaD UCAM                        000189
10000000000000000000000900436045841800000012123               0002020000000000000000000000002               01000001212316061900000000088750000000001N020519000000000000000040000000000000000000000000000000000000000000000100012850725706VICTOR RANGEL LEAL DE LIMA              Rua Cinquenta e Três ,CASA ,19                      23898150Ref. curso de pós-graduação EaD UCAM                        000190
10000000000000000000000900436045841800000012124               0002020000000000000000000000002               01000001212416071900000000088750000000001N020519000000000000000040000000000000000000000000000000000000000000000100012850725706VICTOR RANGEL LEAL DE LIMA              Rua Cinquenta e Três ,CASA ,19                      23898150Ref. curso de pós-graduação EaD UCAM                        000191
10000000000000000000000900436045841800000012125               0002020000000000000000000000002               01000001212516081900000000088750000000001N020519000000000000000040000000000000000000000000000000000000000000000100012850725706VICTOR RANGEL LEAL DE LIMA              Rua Cinquenta e Três ,CASA ,19                      23898150Ref. curso de pós-graduação EaD UCAM                        000192
10000000000000000000000900436045841800000012126               0002020000000000000000000000002               01000001212616091900000000088750000000001N020519000000000000000040000000000000000000000000000000000000000000000100012850725706VICTOR RANGEL LEAL DE LIMA              Rua Cinquenta e Três ,CASA ,19                      23898150Ref. curso de pós-graduação EaD UCAM                        000193
10000000000000000000000900436045841800000012127               0002020000000000000000000000002               01000001212716101900000000088750000000001N020519000000000000000040000000000000000000000000000000000000000000000100012850725706VICTOR RANGEL LEAL DE LIMA              Rua Cinquenta e Três ,CASA ,19                      23898150Ref. curso de pós-graduação EaD UCAM                        000194
10000000000000000000000900436045841800000012128               0002020000000000000000000000002               01000001212816111900000000088740000000001N020519000000000000000040000000000000000000000000000000000000000000000100012850725706VICTOR RANGEL LEAL DE LIMA              Rua Cinquenta e Três ,CASA ,19                      23898150Ref. curso de pós-graduação EaD UCAM                        000195
10000000000000000000000900436045841800000017364               0002020000000000000000000000002               01000001736425051900000000118330000000001N020519000000000000000050000000000000000000000000000000000000000000000100013058288794MARIANA RIBEIRO FERREIRA                Rua José Lourenço , ,153                            21645340Ref. curso de pós-graduação EaD UCAM                        000196
10000000000000000000000900436045841800000017365               0002020000000000000000000000002               01000001736525061900000000118330000000001N020519000000000000000050000000000000000000000000000000000000000000000100013058288794MARIANA RIBEIRO FERREIRA                Rua José Lourenço , ,153                            21645340Ref. curso de pós-graduação EaD UCAM                        000197
10000000000000000000000900436045841800000017366               0002020000000000000000000000002               01000001736625071900000000118330000000001N020519000000000000000050000000000000000000000000000000000000000000000100013058288794MARIANA RIBEIRO FERREIRA                Rua José Lourenço , ,153                            21645340Ref. curso de pós-graduação EaD UCAM                        000198
10000000000000000000000900436045841800000017367               0002020000000000000000000000002               01000001736725081900000000118330000000001N020519000000000000000050000000000000000000000000000000000000000000000100013058288794MARIANA RIBEIRO FERREIRA                Rua José Lourenço , ,153                            21645340Ref. curso de pós-graduação EaD UCAM                        000199
10000000000000000000000900436045841800000017368               0002020000000000000000000000002               01000001736825091900000000118330000000001N020519000000000000000050000000000000000000000000000000000000000000000100013058288794MARIANA RIBEIRO FERREIRA                Rua José Lourenço , ,153                            21645340Ref. curso de pós-graduação EaD UCAM                        000200
10000000000000000000000900436045841800000017369               0002020000000000000000000000002               01000001736925101900000000118340000000001N020519000000000000000050000000000000000000000000000000000000000000000100013058288794MARIANA RIBEIRO FERREIRA                Rua José Lourenço , ,153                            21645340Ref. curso de pós-graduação EaD UCAM                        000201
10000000000000000000000900436045841800000017370               0002020000000000000000000000002               01000001737025111900000000118340000000001N020519000000000000000050000000000000000000000000000000000000000000000100013058288794MARIANA RIBEIRO FERREIRA                Rua José Lourenço , ,153                            21645340Ref. curso de pós-graduação EaD UCAM                        000202
10000000000000000000000900436045841800000017371               0002020000000000000000000000002               01000001737125121900000000118340000000001N020519000000000000000050000000000000000000000000000000000000000000000100013058288794MARIANA RIBEIRO FERREIRA                Rua José Lourenço , ,153                            21645340Ref. curso de pós-graduação EaD UCAM                        000203
10000000000000000000000900436045841800000016981               0002020000000000000000000000002               01000001698110022000000000256580000000001N020519000000000000000050000000000000000000000000000000000000000000000100001103192060Luzia Filomena de Souza Santos          Rua Plinio Andrade de Lucena 132 , ,132             95400000Ref. curso de pós-graduação EaD UCAM                        000204
10000000000000000000000900436045841800000022207               0002020000000000000000000000002               01000002220710012000000000241380000000001N020519000000000000000070000000000000000000000000000000000000000000000100013406788700Suzane Cristine Freitas Cardoso         Rua Jornalista Hungria ,Rua Jornalista              26520310Ref. curso de pós-graduação EaD UCAM                        000205
10000000000000000000000900436045841800000022199               0002020000000000000000000000002               01000002219910051900000000241370000000001N020519000000000000000070000000000000000000000000000000000000000000000100013406788700Suzane Cristine Freitas Cardoso         Rua Jornalista Hungria ,Rua Jornalista              26520310Ref. curso de pós-graduação EaD UCAM                        000206
10000000000000000000000900436045841800000022200               0002020000000000000000000000002               01000002220010061900000000241370000000001N020519000000000000000070000000000000000000000000000000000000000000000100013406788700Suzane Cristine Freitas Cardoso         Rua Jornalista Hungria ,Rua Jornalista              26520310Ref. curso de pós-graduação EaD UCAM                        000207
10000000000000000000000900436045841800000022201               0002020000000000000000000000002               01000002220110071900000000241370000000001N020519000000000000000070000000000000000000000000000000000000000000000100013406788700Suzane Cristine Freitas Cardoso         Rua Jornalista Hungria ,Rua Jornalista              26520310Ref. curso de pós-graduação EaD UCAM                        000208
10000000000000000000000900436045841800000022202               0002020000000000000000000000002               01000002220210081900000000241370000000001N020519000000000000000070000000000000000000000000000000000000000000000100013406788700Suzane Cristine Freitas Cardoso         Rua Jornalista Hungria ,Rua Jornalista              26520310Ref. curso de pós-graduação EaD UCAM                        000209
10000000000000000000000900436045841800000022203               0002020000000000000000000000002               01000002220310091900000000241370000000001N020519000000000000000070000000000000000000000000000000000000000000000100013406788700Suzane Cristine Freitas Cardoso         Rua Jornalista Hungria ,Rua Jornalista              26520310Ref. curso de pós-graduação EaD UCAM                        000210
10000000000000000000000900436045841800000022204               0002020000000000000000000000002               01000002220410101900000000241370000000001N020519000000000000000070000000000000000000000000000000000000000000000100013406788700Suzane Cristine Freitas Cardoso         Rua Jornalista Hungria ,Rua Jornalista              26520310Ref. curso de pós-graduação EaD UCAM                        000211
10000000000000000000000900436045841800000022205               0002020000000000000000000000002               01000002220510111900000000241380000000001N020519000000000000000070000000000000000000000000000000000000000000000100013406788700Suzane Cristine Freitas Cardoso         Rua Jornalista Hungria ,Rua Jornalista              26520310Ref. curso de pós-graduação EaD UCAM                        000212
10000000000000000000000900436045841800000022206               0002020000000000000000000000002               01000002220610121900000000241380000000001N020519000000000000000070000000000000000000000000000000000000000000000100013406788700Suzane Cristine Freitas Cardoso         Rua Jornalista Hungria ,Rua Jornalista              26520310Ref. curso de pós-graduação EaD UCAM                        000213
10000000000000000000000900436045841800000016982               0002020000000000000000000000002               01000001698210032000000000256580000000001N020519000000000000000050000000000000000000000000000000000000000000000100001103192060Luzia Filomena de Souza Santos          Rua Plinio Andrade de Lucena 132 , ,132             95400000Ref. curso de pós-graduação EaD UCAM                        000214
10000000000000000000000900436045841800000017551               0002020000000000000000000000002               01000001755110012000000000147890000000001N020519000000000000000050000000000000000000000000000000000000000000000100013652706706JOSE CARLOS BENTO MONTEIRO              Rua Pacheco de Oliveira ,CASA 03 ,153               21741190Ref. curso de pós-graduação EaD UCAM                        000215
10000000000000000000000900436045841800000017543               0002020000000000000000000000002               01000001754310051900000000147900000000001N020519000000000000000050000000000000000000000000000000000000000000000100013652706706JOSE CARLOS BENTO MONTEIRO              Rua Pacheco de Oliveira ,CASA 03 ,153               21741190Ref. curso de pós-graduação EaD UCAM                        000216
10000000000000000000000900436045841800000017544               0002020000000000000000000000002               01000001754410061900000000147900000000001N020519000000000000000050000000000000000000000000000000000000000000000100013652706706JOSE CARLOS BENTO MONTEIRO              Rua Pacheco de Oliveira ,CASA 03 ,153               21741190Ref. curso de pós-graduação EaD UCAM                        000217
10000000000000000000000900436045841800000017545               0002020000000000000000000000002               01000001754510071900000000147900000000001N020519000000000000000050000000000000000000000000000000000000000000000100013652706706JOSE CARLOS BENTO MONTEIRO              Rua Pacheco de Oliveira ,CASA 03 ,153               21741190Ref. curso de pós-graduação EaD UCAM                        000218
10000000000000000000000900436045841800000017546               0002020000000000000000000000002               01000001754610081900000000147900000000001N020519000000000000000050000000000000000000000000000000000000000000000100013652706706JOSE CARLOS BENTO MONTEIRO              Rua Pacheco de Oliveira ,CASA 03 ,153               21741190Ref. curso de pós-graduação EaD UCAM                        000219
10000000000000000000000900436045841800000017547               0002020000000000000000000000002               01000001754710091900000000147900000000001N020519000000000000000050000000000000000000000000000000000000000000000100013652706706JOSE CARLOS BENTO MONTEIRO              Rua Pacheco de Oliveira ,CASA 03 ,153               21741190Ref. curso de pós-graduação EaD UCAM                        000220
10000000000000000000000900436045841800000017548               0002020000000000000000000000002               01000001754810101900000000147890000000001N020519000000000000000050000000000000000000000000000000000000000000000100013652706706JOSE CARLOS BENTO MONTEIRO              Rua Pacheco de Oliveira ,CASA 03 ,153               21741190Ref. curso de pós-graduação EaD UCAM                        000221
10000000000000000000000900436045841800000017549               0002020000000000000000000000002               01000001754910111900000000147880000000001N020519000000000000000050000000000000000000000000000000000000000000000100013652706706JOSE CARLOS BENTO MONTEIRO              Rua Pacheco de Oliveira ,CASA 03 ,153               21741190Ref. curso de pós-graduação EaD UCAM                        000222
10000000000000000000000900436045841800000016972               0002020000000000000000000000002               01000001697210051900000000256570000000001N020519000000000000000050000000000000000000000000000000000000000000000100001103192060Luzia Filomena de Souza Santos          Rua Plinio Andrade de Lucena 132 , ,132             95400000Ref. curso de pós-graduação EaD UCAM                        000223
10000000000000000000000900436045841800000017550               0002020000000000000000000000002               01000001755010121900000000147880000000001N020519000000000000000050000000000000000000000000000000000000000000000100013652706706JOSE CARLOS BENTO MONTEIRO              Rua Pacheco de Oliveira ,CASA 03 ,153               21741190Ref. curso de pós-graduação EaD UCAM                        000224
10000000000000000000000900436045841800000017551               0002020000000000000000000000002               01000001755110012000000000147890000000001N020519000000000000000050000000000000000000000000000000000000000000000100013652706706JOSE CARLOS BENTO MONTEIRO              Rua Pacheco de Oliveira ,CASA 03 ,153               21741190Ref. curso de pós-graduação EaD UCAM                        000225
10000000000000000000000900436045841800000017543               0002020000000000000000000000002               01000001754310051900000000147900000000001N020519000000000000000050000000000000000000000000000000000000000000000100013652706706JOSE CARLOS BENTO MONTEIRO              Rua Pacheco de Oliveira ,CASA 03 ,153               21741190Ref. curso de pós-graduação EaD UCAM                        000226
10000000000000000000000900436045841800000017544               0002020000000000000000000000002               01000001754410061900000000147900000000001N020519000000000000000050000000000000000000000000000000000000000000000100013652706706JOSE CARLOS BENTO MONTEIRO              Rua Pacheco de Oliveira ,CASA 03 ,153               21741190Ref. curso de pós-graduação EaD UCAM                        000227
10000000000000000000000900436045841800000017545               0002020000000000000000000000002               01000001754510071900000000147900000000001N020519000000000000000050000000000000000000000000000000000000000000000100013652706706JOSE CARLOS BENTO MONTEIRO              Rua Pacheco de Oliveira ,CASA 03 ,153               21741190Ref. curso de pós-graduação EaD UCAM                        000228
10000000000000000000000900436045841800000017546               0002020000000000000000000000002               01000001754610081900000000147900000000001N020519000000000000000050000000000000000000000000000000000000000000000100013652706706JOSE CARLOS BENTO MONTEIRO              Rua Pacheco de Oliveira ,CASA 03 ,153               21741190Ref. curso de pós-graduação EaD UCAM                        000229
10000000000000000000000900436045841800000017547               0002020000000000000000000000002               01000001754710091900000000147900000000001N020519000000000000000050000000000000000000000000000000000000000000000100013652706706JOSE CARLOS BENTO MONTEIRO              Rua Pacheco de Oliveira ,CASA 03 ,153               21741190Ref. curso de pós-graduação EaD UCAM                        000230
10000000000000000000000900436045841800000017548               0002020000000000000000000000002               01000001754810101900000000147890000000001N020519000000000000000050000000000000000000000000000000000000000000000100013652706706JOSE CARLOS BENTO MONTEIRO              Rua Pacheco de Oliveira ,CASA 03 ,153               21741190Ref. curso de pós-graduação EaD UCAM                        000231
10000000000000000000000900436045841800000016973               0002020000000000000000000000002               01000001697310061900000000256570000000001N020519000000000000000050000000000000000000000000000000000000000000000100001103192060Luzia Filomena de Souza Santos          Rua Plinio Andrade de Lucena 132 , ,132             95400000Ref. curso de pós-graduação EaD UCAM                        000232
10000000000000000000000900436045841800000017549               0002020000000000000000000000002               01000001754910111900000000147880000000001N020519000000000000000050000000000000000000000000000000000000000000000100013652706706JOSE CARLOS BENTO MONTEIRO              Rua Pacheco de Oliveira ,CASA 03 ,153               21741190Ref. curso de pós-graduação EaD UCAM                        000233
10000000000000000000000900436045841800000017550               0002020000000000000000000000002               01000001755010121900000000147880000000001N020519000000000000000050000000000000000000000000000000000000000000000100013652706706JOSE CARLOS BENTO MONTEIRO              Rua Pacheco de Oliveira ,CASA 03 ,153               21741190Ref. curso de pós-graduação EaD UCAM                        000234
10000000000000000000000900436045841800000012150               0002020000000000000000000000002               01000001215002051900000000147920000000001N020519000000000000000040000000000000000000000000000000000000000000000100013885194708NAYRA CASTRO PEREIRA MIRANDA            Rua Doutor Mário Viana ,BLOCO 2 APARTAM             24241002Ref. curso de pós-graduação EaD UCAM                        000235
10000000000000000000000900436045841800000012151               0002020000000000000000000000002               01000001215102061900000000147930000000001N020519000000000000000040000000000000000000000000000000000000000000000100013885194708NAYRA CASTRO PEREIRA MIRANDA            Rua Doutor Mário Viana ,BLOCO 2 APARTAM             24241002Ref. curso de pós-graduação EaD UCAM                        000236
10000000000000000000000900436045841800000012152               0002020000000000000000000000002               01000001215202071900000000147930000000001N020519000000000000000040000000000000000000000000000000000000000000000100013885194708NAYRA CASTRO PEREIRA MIRANDA            Rua Doutor Mário Viana ,BLOCO 2 APARTAM             24241002Ref. curso de pós-graduação EaD UCAM                        000237
10000000000000000000000900436045841800000016329               0002020000000000000000000000002               01000001632904051900000000147920000000001N020519000000000000000050000000000000000000000000000000000000000000000100013896045784ANA PAULA DE LIMA SILVA                 Rua Jorge Yunes , ,60                               22795295Ref. curso de pós-graduação EaD UCAM                        000238
10000000000000000000000900436045841800000016330               0002020000000000000000000000002               01000001633004061900000000147920000000001N020519000000000000000050000000000000000000000000000000000000000000000100013896045784ANA PAULA DE LIMA SILVA                 Rua Jorge Yunes , ,60                               22795295Ref. curso de pós-graduação EaD UCAM                        000239
10000000000000000000000900436045841800000021698               0002020000000000000000000000002               01000002169805121900000000186040000000001N020519000000000000000070000000000000000000000000000000000000000000000100000028527720Bettina Bruno Santo Anastacio           Rua Raul Pompéia ,Apt 503 ,14                       22080002Ref. curso de pós-graduação EaD UCAM                        000240
10000000000000000000000900436045841800000016974               0002020000000000000000000000002               01000001697410071900000000256570000000001N020519000000000000000050000000000000000000000000000000000000000000000100001103192060Luzia Filomena de Souza Santos          Rua Plinio Andrade de Lucena 132 , ,132             95400000Ref. curso de pós-graduação EaD UCAM                        000241
10000000000000000000000900436045841800000016331               0002020000000000000000000000002               01000001633104071900000000147920000000001N020519000000000000000050000000000000000000000000000000000000000000000100013896045784ANA PAULA DE LIMA SILVA                 Rua Jorge Yunes , ,60                               22795295Ref. curso de pós-graduação EaD UCAM                        000242
10000000000000000000000900436045841800000016332               0002020000000000000000000000002               01000001633204081900000000147920000000001N020519000000000000000050000000000000000000000000000000000000000000000100013896045784ANA PAULA DE LIMA SILVA                 Rua Jorge Yunes , ,60                               22795295Ref. curso de pós-graduação EaD UCAM                        000243
10000000000000000000000900436045841800000016333               0002020000000000000000000000002               01000001633304091900000000147920000000001N020519000000000000000050000000000000000000000000000000000000000000000100013896045784ANA PAULA DE LIMA SILVA                 Rua Jorge Yunes , ,60                               22795295Ref. curso de pós-graduação EaD UCAM                        000244
10000000000000000000000900436045841800000016334               0002020000000000000000000000002               01000001633404101900000000147920000000001N020519000000000000000050000000000000000000000000000000000000000000000100013896045784ANA PAULA DE LIMA SILVA                 Rua Jorge Yunes , ,60                               22795295Ref. curso de pós-graduação EaD UCAM                        000245
10000000000000000000000900436045841800000016335               0002020000000000000000000000002               01000001633504111900000000147920000000001N020519000000000000000050000000000000000000000000000000000000000000000100013896045784ANA PAULA DE LIMA SILVA                 Rua Jorge Yunes , ,60                               22795295Ref. curso de pós-graduação EaD UCAM                        000246
10000000000000000000000900436045841800000016975               0002020000000000000000000000002               01000001697510081900000000256570000000001N020519000000000000000050000000000000000000000000000000000000000000000100001103192060Luzia Filomena de Souza Santos          Rua Plinio Andrade de Lucena 132 , ,132             95400000Ref. curso de pós-graduação EaD UCAM                        000247
10000000000000000000000900436045841800000017618               0002020000000000000000000000002               01000001761815012000000000172400000000001N020519000000000000000050000000000000000000000000000000000000000000000100015665032727MURILO NUNES LAMEIRA                    Rua Pernambuco , ,524                               29148337Ref. curso de pós-graduação EaD UCAM                        000248
10000000000000000000000900436045841800000017784               0002020000000000000000000000002               01000001778415022000000000172400000000001N020519000000000000000050000000000000000000000000000000000000000000000100015665032727MURILO NUNES LAMEIRA                    Rua Pernambuco , ,524                               29148337Ref. curso de pós-graduação EaD UCAM                        000249
